{
  "_format": "hh-sol-artifact-1",
  "contractName": "JO2024",
  "sourceName": "contracts/JO2024.sol",
  "abi": [
    {
      "inputs": [],
      "stateMutability": "nonpayable",
      "type": "constructor"
    },
    {
      "anonymous": false,
      "inputs": [
        {
          "indexed": true,
          "internalType": "address",
          "name": "account",
          "type": "address"
        },
        {
          "indexed": true,
          "internalType": "address",
          "name": "operator",
          "type": "address"
        },
        {
          "indexed": false,
          "internalType": "bool",
          "name": "approved",
          "type": "bool"
        }
      ],
      "name": "ApprovalForAll",
      "type": "event"
    },
    {
      "anonymous": false,
      "inputs": [
        {
          "indexed": true,
          "internalType": "address",
          "name": "from",
          "type": "address"
        },
        {
          "indexed": true,
          "internalType": "address",
          "name": "to",
          "type": "address"
        },
        {
          "indexed": false,
          "internalType": "uint256",
          "name": "typeFom",
          "type": "uint256"
        },
        {
          "indexed": false,
          "internalType": "uint256",
          "name": "typeTo",
          "type": "uint256"
        },
        {
          "indexed": false,
          "internalType": "uint256",
          "name": "amount",
          "type": "uint256"
        }
      ],
      "name": "ExchangeEvent",
      "type": "event"
    },
    {
      "anonymous": false,
      "inputs": [
        {
          "indexed": true,
          "internalType": "address",
          "name": "previousOwner",
          "type": "address"
        },
        {
          "indexed": true,
          "internalType": "address",
          "name": "newOwner",
          "type": "address"
        }
      ],
      "name": "OwnershipTransferred",
      "type": "event"
    },
    {
      "anonymous": false,
      "inputs": [
        {
          "indexed": false,
          "internalType": "address",
          "name": "account",
          "type": "address"
        }
      ],
      "name": "Paused",
      "type": "event"
    },
    {
      "anonymous": false,
      "inputs": [
        {
          "indexed": true,
          "internalType": "address",
          "name": "operator",
          "type": "address"
        },
        {
          "indexed": true,
          "internalType": "address",
          "name": "from",
          "type": "address"
        },
        {
          "indexed": true,
          "internalType": "address",
          "name": "to",
          "type": "address"
        },
        {
          "indexed": false,
          "internalType": "uint256[]",
          "name": "ids",
          "type": "uint256[]"
        },
        {
          "indexed": false,
          "internalType": "uint256[]",
          "name": "values",
          "type": "uint256[]"
        }
      ],
      "name": "TransferBatch",
      "type": "event"
    },
    {
      "anonymous": false,
      "inputs": [
        {
          "indexed": true,
          "internalType": "address",
          "name": "operator",
          "type": "address"
        },
        {
          "indexed": true,
          "internalType": "address",
          "name": "from",
          "type": "address"
        },
        {
          "indexed": true,
          "internalType": "address",
          "name": "to",
          "type": "address"
        },
        {
          "indexed": false,
          "internalType": "uint256",
          "name": "id",
          "type": "uint256"
        },
        {
          "indexed": false,
          "internalType": "uint256",
          "name": "value",
          "type": "uint256"
        }
      ],
      "name": "TransferSingle",
      "type": "event"
    },
    {
      "anonymous": false,
      "inputs": [
        {
          "indexed": false,
          "internalType": "string",
          "name": "value",
          "type": "string"
        },
        {
          "indexed": true,
          "internalType": "uint256",
          "name": "id",
          "type": "uint256"
        }
      ],
      "name": "URI",
      "type": "event"
    },
    {
      "anonymous": false,
      "inputs": [
        {
          "indexed": false,
          "internalType": "address",
          "name": "account",
          "type": "address"
        }
      ],
      "name": "Unpaused",
      "type": "event"
    },
    {
      "inputs": [],
      "name": "amountBurn",
      "outputs": [
        {
          "internalType": "uint256",
          "name": "",
          "type": "uint256"
        }
      ],
      "stateMutability": "view",
      "type": "function"
    },
    {
      "inputs": [
        {
          "internalType": "address",
          "name": "account",
          "type": "address"
        },
        {
          "internalType": "uint256",
          "name": "id",
          "type": "uint256"
        }
      ],
      "name": "balanceOf",
      "outputs": [
        {
          "internalType": "uint256",
          "name": "",
          "type": "uint256"
        }
      ],
      "stateMutability": "view",
      "type": "function"
    },
    {
      "inputs": [
        {
          "internalType": "address[]",
          "name": "accounts",
          "type": "address[]"
        },
        {
          "internalType": "uint256[]",
          "name": "ids",
          "type": "uint256[]"
        }
      ],
      "name": "balanceOfBatch",
      "outputs": [
        {
          "internalType": "uint256[]",
          "name": "",
          "type": "uint256[]"
        }
      ],
      "stateMutability": "view",
      "type": "function"
    },
    {
      "inputs": [
        {
          "internalType": "uint256",
          "name": "_Type",
          "type": "uint256"
        }
      ],
      "name": "burn",
      "outputs": [],
      "stateMutability": "nonpayable",
      "type": "function"
    },
    {
      "inputs": [
        {
          "internalType": "address",
          "name": "_from",
          "type": "address"
        }
      ],
      "name": "exchangeByContract",
      "outputs": [],
      "stateMutability": "nonpayable",
      "type": "function"
    },
    {
      "inputs": [],
      "name": "exchangeCancelStart",
      "outputs": [],
      "stateMutability": "nonpayable",
      "type": "function"
    },
    {
      "inputs": [],
      "name": "exchangeClose",
      "outputs": [],
      "stateMutability": "nonpayable",
      "type": "function"
    },
    {
      "inputs": [
        {
          "internalType": "address",
          "name": "_from",
          "type": "address"
        }
      ],
      "name": "exchangeFound",
      "outputs": [],
      "stateMutability": "nonpayable",
      "type": "function"
    },
    {
      "inputs": [
        {
          "internalType": "uint256",
          "name": "_TypeFrom",
          "type": "uint256"
        },
        {
          "internalType": "uint256",
          "name": "_TypeTo",
          "type": "uint256"
        },
        {
          "internalType": "uint256",
          "name": "_amount",
          "type": "uint256"
        }
      ],
      "name": "exchangeStart",
      "outputs": [],
      "stateMutability": "nonpayable",
      "type": "function"
    },
    {
      "inputs": [],
      "name": "exchangeState",
      "outputs": [
        {
          "internalType": "enum JO2024.ExchangeState",
          "name": "",
          "type": "uint8"
        }
      ],
      "stateMutability": "view",
      "type": "function"
    },
    {
      "inputs": [],
      "name": "getExchangeStart",
      "outputs": [
        {
          "internalType": "address",
          "name": "",
          "type": "address"
        }
      ],
      "stateMutability": "view",
      "type": "function"
    },
    {
      "inputs": [
        {
          "internalType": "address",
          "name": "account",
          "type": "address"
        },
        {
          "internalType": "address",
          "name": "operator",
          "type": "address"
        }
      ],
      "name": "isApprovedForAll",
      "outputs": [
        {
          "internalType": "bool",
          "name": "",
          "type": "bool"
        }
      ],
      "stateMutability": "view",
      "type": "function"
    },
    {
      "inputs": [
        {
          "internalType": "uint256",
          "name": "_Type",
          "type": "uint256"
        },
        {
          "internalType": "uint256",
          "name": "_amount",
          "type": "uint256"
        }
      ],
      "name": "mint",
      "outputs": [],
      "stateMutability": "nonpayable",
      "type": "function"
    },
    {
      "inputs": [
        {
          "internalType": "uint256",
          "name": "",
          "type": "uint256"
        }
      ],
      "name": "minted",
      "outputs": [
        {
          "internalType": "uint256",
          "name": "",
          "type": "uint256"
        }
      ],
      "stateMutability": "view",
      "type": "function"
    },
    {
      "inputs": [],
      "name": "name",
      "outputs": [
        {
          "internalType": "string",
          "name": "",
          "type": "string"
        }
      ],
      "stateMutability": "pure",
      "type": "function"
    },
    {
      "inputs": [],
      "name": "owner",
      "outputs": [
        {
          "internalType": "address",
          "name": "",
          "type": "address"
        }
      ],
      "stateMutability": "view",
      "type": "function"
    },
    {
      "inputs": [],
      "name": "pause",
      "outputs": [],
      "stateMutability": "nonpayable",
      "type": "function"
    },
    {
      "inputs": [],
      "name": "paused",
      "outputs": [
        {
          "internalType": "bool",
          "name": "",
          "type": "bool"
        }
      ],
      "stateMutability": "view",
      "type": "function"
    },
    {
      "inputs": [],
      "name": "renounceOwnership",
      "outputs": [],
      "stateMutability": "nonpayable",
      "type": "function"
    },
    {
      "inputs": [
        {
          "internalType": "address",
          "name": "from",
          "type": "address"
        },
        {
          "internalType": "address",
          "name": "to",
          "type": "address"
        },
        {
          "internalType": "uint256[]",
          "name": "ids",
          "type": "uint256[]"
        },
        {
          "internalType": "uint256[]",
          "name": "amounts",
          "type": "uint256[]"
        },
        {
          "internalType": "bytes",
          "name": "data",
          "type": "bytes"
        }
      ],
      "name": "safeBatchTransferFrom",
      "outputs": [],
      "stateMutability": "nonpayable",
      "type": "function"
    },
    {
      "inputs": [
        {
          "internalType": "address",
          "name": "from",
          "type": "address"
        },
        {
          "internalType": "address",
          "name": "to",
          "type": "address"
        },
        {
          "internalType": "uint256",
          "name": "id",
          "type": "uint256"
        },
        {
          "internalType": "uint256",
          "name": "amount",
          "type": "uint256"
        },
        {
          "internalType": "bytes",
          "name": "data",
          "type": "bytes"
        }
      ],
      "name": "safeTransferFrom",
      "outputs": [],
      "stateMutability": "nonpayable",
      "type": "function"
    },
    {
      "inputs": [
        {
          "internalType": "uint256",
          "name": "_amount",
          "type": "uint256"
        }
      ],
      "name": "setAmountBurn",
      "outputs": [],
      "stateMutability": "nonpayable",
      "type": "function"
    },
    {
      "inputs": [
        {
          "internalType": "address",
          "name": "operator",
          "type": "address"
        },
        {
          "internalType": "bool",
          "name": "approved",
          "type": "bool"
        }
      ],
      "name": "setApprovalForAll",
      "outputs": [],
      "stateMutability": "nonpayable",
      "type": "function"
    },
    {
      "inputs": [
        {
          "internalType": "uint256",
          "name": "_Type",
          "type": "uint256"
        },
        {
          "internalType": "uint256",
          "name": "_amount",
          "type": "uint256"
        }
      ],
      "name": "setSupply",
      "outputs": [],
      "stateMutability": "nonpayable",
      "type": "function"
    },
    {
      "inputs": [
        {
          "internalType": "string",
          "name": "_uri",
          "type": "string"
        }
      ],
      "name": "setURI",
      "outputs": [],
      "stateMutability": "nonpayable",
      "type": "function"
    },
    {
      "inputs": [
        {
          "internalType": "uint256",
          "name": "",
          "type": "uint256"
        }
      ],
      "name": "supplies",
      "outputs": [
        {
          "internalType": "uint256",
          "name": "",
          "type": "uint256"
        }
      ],
      "stateMutability": "view",
      "type": "function"
    },
    {
      "inputs": [
        {
          "internalType": "bytes4",
          "name": "interfaceId",
          "type": "bytes4"
        }
      ],
      "name": "supportsInterface",
      "outputs": [
        {
          "internalType": "bool",
          "name": "",
          "type": "bool"
        }
      ],
      "stateMutability": "view",
      "type": "function"
    },
    {
      "inputs": [],
      "name": "symbol",
      "outputs": [
        {
          "internalType": "string",
          "name": "",
          "type": "string"
        }
      ],
      "stateMutability": "pure",
      "type": "function"
    },
    {
      "inputs": [
        {
          "internalType": "address",
          "name": "newOwner",
          "type": "address"
        }
      ],
      "name": "transferOwnership",
      "outputs": [],
      "stateMutability": "nonpayable",
      "type": "function"
    },
    {
      "inputs": [],
      "name": "unpause",
      "outputs": [],
      "stateMutability": "nonpayable",
      "type": "function"
    },
    {
      "inputs": [
        {
          "internalType": "uint256",
          "name": "",
          "type": "uint256"
        }
      ],
      "name": "uri",
      "outputs": [
        {
          "internalType": "string",
          "name": "",
          "type": "string"
        }
      ],
      "stateMutability": "view",
      "type": "function"
    }
  ],
  "bytecode": "0x6103e86004556101c0604052612710608081815260a082905260c082905260e08290526101009190915260016101208190526101408190526101608190526101808190526101a0526200005790600590600a6200017c565b506040805161014081018252600080825260208201819052918101829052606081018290526080810182905260a0810182905260c0810182905260e081018290526101008101829052610120810191909152620000b990600690600a620001d2565b50348015620000c757600080fd5b506040518060800160405280604c81526020016200306e604c9139620000ed8162000109565b506003805460ff19169055620001033362000122565b620002e6565b80516200011e90600290602084019062000215565b5050565b600380546001600160a01b03838116610100818102610100600160a81b031985161790945560405193909204169182907f8be0079c531659141344cd1fd0a4f28419497f9722a3daafe3b4186f6b6457e090600090a35050565b828054828255906000526020600020908101928215620001c0579160200282015b82811115620001c0578251829061ffff169055916020019190600101906200019d565b50620001ce92915062000292565b5090565b828054828255906000526020600020908101928215620001c0579160200282015b82811115620001c0578251829060ff16905591602001919060010190620001f3565b8280546200022390620002a9565b90600052602060002090601f016020900481019282620002475760008555620001c0565b82601f106200026257805160ff1916838001178555620001c0565b82800160010185558215620001c0579182015b82811115620001c057825182559160200191906001019062000275565b5b80821115620001ce576000815560010162000293565b600181811c90821680620002be57607f821691505b60208210811415620002e057634e487b7160e01b600052602260045260246000fd5b50919050565b612d7880620002f66000396000f3fe608060405234801561001057600080fd5b50600436106101e45760003560e01c80636f655e3e1161010f578063a7e07c29116100a2578063e985e9c511610071578063e985e9c514610429578063f242432a14610465578063f2fde38b14610478578063fc784d491461048b57600080fd5b8063a7e07c29146103ea578063aae394f1146103fd578063c58a189114610405578063c7843be11461041657600080fd5b80638da5cb5b116100de5780638da5cb5b1461037c57806395d89b41146103a6578063983c3d9a146103c4578063a22cb465146103d757600080fd5b80636f655e3e14610351578063715018a6146103595780637dc0bf3f146103615780638456cb591461037457600080fd5b80631b2ef1ca116101875780633f4ba83a116101565780633f4ba83a1461030b57806342966c68146103135780634e1273f4146103265780635c975abb1461034657600080fd5b80631b2ef1ca146102bf57806326f1a1fd146102d25780632eb2c2d6146102e557806335018441146102f857600080fd5b806306fdde03116101c357806306fdde03146102475780630dd27120146102795780630e89341c146102a35780631902d71b146102b657600080fd5b8062fdd58e146101e957806301ffc9a71461020f57806302fe530514610232575b600080fd5b6101fc6101f73660046122d2565b61049e565b6040519081526020015b60405180910390f35b61022261021d366004612312565b610534565b6040519015158152602001610206565b6102456102403660046123d7565b610586565b005b60408051808201909152600d81526c4a4f203230323420506172697360981b60208201525b6040516102069190612475565b33600090815260076020526040902060030154600160a01b900460ff16604051610206919061249e565b61026c6102b13660046124c6565b61059a565b6101fc60045481565b6102456102cd3660046124df565b61062e565b6101fc6102e03660046124c6565b6107f7565b6102456102f33660046125b6565b610818565b610245610306366004612660565b610864565b6102456109ba565b6102456103213660046124c6565b6109cc565b61033961033436600461267b565b610b85565b6040516102069190612781565b60035460ff16610222565b610245610caf565b610245610dea565b6101fc61036f3660046124c6565b610dfc565b610245610e0c565b60035461010090046001600160a01b03165b6040516001600160a01b039091168152602001610206565b6040805180820190915260028152614a4f60f01b602082015261026c565b6102456103d23660046124c6565b610e1c565b6102456103e5366004612794565b610e29565b6102456103f83660046127d0565b610e38565b61024561109f565b6008546001600160a01b031661038e565b610245610424366004612660565b6111cd565b6102226104373660046127fc565b6001600160a01b03918216600090815260016020908152604080832093909416825291909152205460ff1690565b61024561047336600461282f565b61145d565b610245610486366004612660565b6114a2565b6102456104993660046124df565b611518565b60006001600160a01b03831661050e5760405162461bcd60e51b815260206004820152602a60248201527f455243313135353a2061646472657373207a65726f206973206e6f742061207660448201526930b634b21037bbb732b960b11b60648201526084015b60405180910390fd5b506000908152602081815260408083206001600160a01b03949094168352929052205490565b60006001600160e01b03198216636cdb3d1360e11b148061056557506001600160e01b031982166303a24d0760e21b145b8061058057506301ffc9a760e01b6001600160e01b03198316145b92915050565b61058e611544565b610597816115a4565b50565b6060600280546105a990612894565b80601f01602080910402602001604051908101604052809291908181526020018280546105d590612894565b80156106225780601f106105f757610100808354040283529160200191610622565b820191906000526020600020905b81548152906001019060200180831161060557829003601f168201915b50505050509050919050565b6106366115b7565b6106766040518060400160405280601881526020017f6d696e74205f54797065202573205f616d6f756e74202573000000000000000081525083836115fd565b600554610685906001906128e5565b8211156106c95760405162461bcd60e51b815260206004820152601260248201527113919508191bd95cc81b9bdd08195e1a5cdd60721b6044820152606401610505565b600582815481106106dc576106dc6128fc565b906000526020600020015481600684815481106106fb576106fb6128fc565b90600052602060002001546107109190612912565b111561075e5760405162461bcd60e51b815260206004820152601c60248201527f416c6c20746865204e46542068617665206265656e206d696e746564000000006044820152606401610505565b6000811161079a5760405162461bcd60e51b81526020600482015260096024820152684d696e74205a65726f60b81b6044820152606401610505565b6107c13383836040518060400160405280600381526020016203078360ec1b815250611644565b80600683815481106107d5576107d56128fc565b9060005260206000200160008282546107ee9190612912565b90915550505050565b6005818154811061080757600080fd5b600091825260209091200154905081565b6001600160a01b03851633148061083457506108348533610437565b6108505760405162461bcd60e51b81526004016105059061292a565b61085d8585858585611758565b5050505050565b6108a36040518060400160405280601b81526020017f65786368616e67654279436f6e7472616374205f66726f6d202573000000000081525082611935565b3330146108fe5760405162461bcd60e51b8152602060048201526024808201527f4f6e6c7920636f6e7472616374206164647265737320636f756c642065786368604482015263616e676560e01b6064820152608401610505565b6001600160a01b0381811660009081526007602090815260409182902060038082018054600160a11b60ff60a01b19821617909155825460029093015485518087019096529185526203078360ec1b9385019390935261096294869493169261145d565b6001600160a01b03808216600090815260076020908152604091829020600380820154600183015460029093015485518087019096529185526203078360ec1b9385019390935261059794929092169285929061145d565b6109c2611544565b6109ca61197a565b565b610a0c6040518060400160405280601b81526020017f6275726e206d73672e73656e646572202573205f54797065202573000000000081525033836119cc565b6004811115610a5d5760405162461bcd60e51b815260206004820152601a60248201527f4e465420646f6573206e6f7420657869737420746f206275726e0000000000006044820152606401610505565b600454610a6a338361049e565b1015610ab85760405162461bcd60e51b815260206004820152601d60248201527f4e6f204e4654547970652073756666696369656e7420746f206275726e0000006044820152606401610505565b6005610ac48282612912565b81548110610ad457610ad46128fc565b90600052602060002001546006826005610aee9190612912565b81548110610afe57610afe6128fc565b90600052602060002001546001610b159190612912565b1115610b635760405162461bcd60e51b815260206004820152601f60248201527f54686520756e69717565204e46542068617665206265656e206d696e746564006044820152606401610505565b610b703382600454611a13565b610597610b7e826005612912565b600161062e565b60608151835114610bea5760405162461bcd60e51b815260206004820152602960248201527f455243313135353a206163636f756e747320616e6420696473206c656e677468604482015268040dad2e6dac2e8c6d60bb1b6064820152608401610505565b6000835167ffffffffffffffff811115610c0657610c06612336565b604051908082528060200260200182016040528015610c2f578160200160208202803683370190505b50905060005b8451811015610ca757610c7a858281518110610c5357610c536128fc565b6020026020010151858381518110610c6d57610c6d6128fc565b602002602001015161049e565b828281518110610c8c57610c8c6128fc565b6020908102919091010152610ca081612978565b9050610c35565b509392505050565b3380610cf25760405162461bcd60e51b815260206004820152601260248201527141646472657373206e6f742076616c69646560701b6044820152606401610505565b610d316040518060400160405280601b81526020017f65786368616e6765436c6f7365206d73672e73656e646572202573000000000081525033611935565b600233600090815260076020526040902060030154600160a01b900460ff166002811115610d6157610d61612488565b14610dae5760405162461bcd60e51b815260206004820152601560248201527f45786368616e6765206e6f7420746f20636c6f736500000000000000000000006044820152606401610505565b336000908152600760205260408120818155600181018290556002810182905560030180546001600160a81b0319169055610597903090610e29565b610df2611544565b6109ca6000611b8f565b6006818154811061080757600080fd5b610e14611544565b6109ca611bf6565b610e24611544565b600455565b610e34338383611c33565b5050565b610e5c604051806060016040528060308152602001612d1360309139848484611d14565b60048311158015610e6e575060048211155b610eba5760405162461bcd60e51b815260206004820152601e60248201527f4e465420646f6573206e6f7420657869737420746f2065786368616e676500006044820152606401610505565b80610ec5338561049e565b1015610ee35760405162461bcd60e51b815260040161050590612993565b81831415610f215760405162461bcd60e51b815260206004820152600b60248201526a4e46547320657175616c7360a81b6044820152606401610505565b60008111610f5d5760405162461bcd60e51b81526020600482015260096024820152684d696e74205a65726f60b81b6044820152606401610505565b600233600090815260076020526040902060030154600160a01b900460ff166002811115610f8d57610f8d612488565b1415610fcf5760405162461bcd60e51b815260206004820152601160248201527045786368616e676520746f20636c6f736560781b6044820152606401610505565b6040805160a0810182528481526020810184905290810182905260006060820152608081016001905233600090815260076020908152604091829020835181559083015160018201559082015160028083019190915560608301516003830180546001600160a01b03929092166001600160a01b031983168117825560808601519391926001600160a81b0319161790600160a01b90849081111561107657611076612488565b021790555050600880546001600160a01b031916331790555061109a306001610e29565b505050565b33806110e25760405162461bcd60e51b815260206004820152601260248201527141646472657373206e6f742076616c69646560701b6044820152606401610505565b611104604051806060016040528060218152602001612cf26021913933611935565b600133600090815260076020526040902060030154600160a01b900460ff16600281111561113457611134612488565b146111815760405162461bcd60e51b815260206004820152601560248201527f45786368616e6765206e6f7420746f20537461727400000000000000000000006044820152606401610505565b336000908152600760205260408120818155600181018290556002810182905560030180546001600160a81b0319169055600880546001600160a01b0319169055610597903090610e29565b806001600160a01b0381166112195760405162461bcd60e51b815260206004820152601260248201527141646472657373206e6f742076616c69646560701b6044820152606401610505565b6112586040518060400160405280601681526020017f65786368616e6765466f756e64205f66726f6d2025730000000000000000000081525083611935565b6001600160a01b0382166000908152600760205260409020600281015460019091015461128690339061049e565b10156112e35760405162461bcd60e51b815260206004820152602660248201527f496e73756666696369656e742062616c616e636520666f72207472616e73666560448201526572203a20746f60d01b6064820152608401610505565b6001600160a01b03821660009081526007602052604090206002810154905461130d90849061049e565b101561132b5760405162461bcd60e51b815260040161050590612993565b60016001600160a01b038316600090815260076020526040902060030154600160a01b900460ff16600281111561136457611364612488565b146113b15760405162461bcd60e51b815260206004820152601560248201527f45786368616e6765206e6f7420696e20737461727400000000000000000000006044820152606401610505565b6001600160a01b038216600081815260076020908152604091829020600381018054336001600160a01b0319918216811790925560088054909116905581546001830154600290930154855191825293810192909252928101919091529091907f80ab7cd7b2cadbadf00357ebe1e68eb354ce2bf65dd5d25c5795272432fd1c829060600160405180910390a3611449306001610e29565b61145282611d63565b610e34306000610e29565b6001600160a01b03851633148061147957506114798533610437565b6114955760405162461bcd60e51b81526004016105059061292a565b61085d8585858585611df7565b6114aa611544565b6001600160a01b03811661150f5760405162461bcd60e51b815260206004820152602660248201527f4f776e61626c653a206e6577206f776e657220697320746865207a65726f206160448201526564647265737360d01b6064820152608401610505565b61059781611b8f565b611520611544565b8060058381548110611534576115346128fc565b6000918252602090912001555050565b6003546001600160a01b036101009091041633146109ca5760405162461bcd60e51b815260206004820181905260248201527f4f776e61626c653a2063616c6c6572206973206e6f7420746865206f776e65726044820152606401610505565b8051610e3490600290602084019061221d565b60035460ff16156109ca5760405162461bcd60e51b815260206004820152601060248201526f14185d5cd8589b194e881c185d5cd95960821b6044820152606401610505565b61109a838383604051602401611615939291906129db565b60408051601f198184030181529190526020810180516001600160e01b031663ca47c4eb60e01b179052611f21565b6001600160a01b0384166116a45760405162461bcd60e51b815260206004820152602160248201527f455243313135353a206d696e7420746f20746865207a65726f206164647265736044820152607360f81b6064820152608401610505565b3360006116b085611f42565b905060006116bd85611f42565b90506000868152602081815260408083206001600160a01b038b168452909152812080548792906116ef908490612912565b909155505060408051878152602081018790526001600160a01b03808a1692600092918716917fc3d58168c5ae7397731d063d5bbf3d657854427343f4c083240f7aacaa2d0f62910160405180910390a461174f83600089898989611f8d565b50505050505050565b81518351146117ba5760405162461bcd60e51b815260206004820152602860248201527f455243313135353a2069647320616e6420616d6f756e7473206c656e677468206044820152670dad2e6dac2e8c6d60c31b6064820152608401610505565b6001600160a01b0384166117e05760405162461bcd60e51b815260040161050590612a00565b3360005b84518110156118c7576000858281518110611801576118016128fc565b60200260200101519050600085838151811061181f5761181f6128fc565b602090810291909101810151600084815280835260408082206001600160a01b038e16835290935291909120549091508181101561186f5760405162461bcd60e51b815260040161050590612a45565b6000838152602081815260408083206001600160a01b038e8116855292528083208585039055908b168252812080548492906118ac908490612912565b92505081905550505050806118c090612978565b90506117e4565b50846001600160a01b0316866001600160a01b0316826001600160a01b03167f4a39dc06d4c0dbc64b70af90fd698a233a518aa5d07e595d983b8c0526c8f7fb8787604051611917929190612a8f565b60405180910390a461192d818787878787612101565b505050505050565b610e34828260405160240161194b929190612abd565b60408051601f198184030181529190526020810180516001600160e01b031663319af33360e01b179052611f21565b6119826121cb565b6003805460ff191690557f5db9ee0a495bf2e6ff9c91a7834c1ba4fdd244a5e8aa4e537bd38aeae4b073aa335b6040516001600160a01b03909116815260200160405180910390a1565b61109a8383836040516024016119e493929190612ae8565b60408051601f198184030181529190526020810180516001600160e01b0316630d26b92560e01b179052611f21565b6001600160a01b038316611a755760405162461bcd60e51b815260206004820152602360248201527f455243313135353a206275726e2066726f6d20746865207a65726f206164647260448201526265737360e81b6064820152608401610505565b336000611a8184611f42565b90506000611a8e84611f42565b60408051602080820183526000918290528882528181528282206001600160a01b038b1683529052205490915084811015611b175760405162461bcd60e51b8152602060048201526024808201527f455243313135353a206275726e20616d6f756e7420657863656564732062616c604482015263616e636560e01b6064820152608401610505565b6000868152602081815260408083206001600160a01b038b81168086529184528285208a8703905582518b81529384018a90529092908816917fc3d58168c5ae7397731d063d5bbf3d657854427343f4c083240f7aacaa2d0f62910160405180910390a460408051602081019091526000905261174f565b600380546001600160a01b0383811661010081810274ffffffffffffffffffffffffffffffffffffffff001985161790945560405193909204169182907f8be0079c531659141344cd1fd0a4f28419497f9722a3daafe3b4186f6b6457e090600090a35050565b611bfe6115b7565b6003805460ff191660011790557f62e78cea01bee320cd4e420270b5ea74000d11b0c9f74754ebdbfc544b05a2586119af3390565b816001600160a01b0316836001600160a01b03161415611ca75760405162461bcd60e51b815260206004820152602960248201527f455243313135353a2073657474696e6720617070726f76616c20737461747573604482015268103337b91039b2b63360b91b6064820152608401610505565b6001600160a01b03838116600081815260016020908152604080832094871680845294825291829020805460ff191686151590811790915591519182527f17307eab39ab6107e8899845ad3d59bd9653f200f220920489ca2b5937696c31910160405180910390a3505050565b611d5d84848484604051602401611d2e9493929190612b16565b60408051601f198184030181529190526020810180516001600160e01b031663a7a8785360e01b179052611f21565b50505050565b611da26040518060400160405280601f81526020017f65786368616e6765546f446f4279436f6e7472616374205f66726f6d2025730081525082611935565b604051633501844160e01b81526001600160a01b03821660048201523090633501844190602401600060405180830381600087803b158015611de357600080fd5b505af115801561085d573d6000803e3d6000fd5b6001600160a01b038416611e1d5760405162461bcd60e51b815260040161050590612a00565b336000611e2985611f42565b90506000611e3685611f42565b90506000868152602081815260408083206001600160a01b038c16845290915290205485811015611e795760405162461bcd60e51b815260040161050590612a45565b6000878152602081815260408083206001600160a01b038d8116855292528083208985039055908a16825281208054889290611eb6908490612912565b909155505060408051888152602081018890526001600160a01b03808b16928c821692918816917fc3d58168c5ae7397731d063d5bbf3d657854427343f4c083240f7aacaa2d0f62910160405180910390a4611f16848a8a8a8a8a611f8d565b505050505050505050565b80516a636f6e736f6c652e6c6f67602083016000808483855afa5050505050565b60408051600180825281830190925260609160009190602080830190803683370190505090508281600081518110611f7c57611f7c6128fc565b602090810291909101015292915050565b6001600160a01b0384163b1561192d5760405163f23a6e6160e01b81526001600160a01b0385169063f23a6e6190611fd19089908990889088908890600401612b45565b602060405180830381600087803b158015611feb57600080fd5b505af192505050801561201b575060408051601f3d908101601f1916820190925261201891810190612b88565b60015b6120d157612027612ba5565b806308c379a01415612061575061203c612bc1565b806120475750612063565b8060405162461bcd60e51b81526004016105059190612475565b505b60405162461bcd60e51b815260206004820152603460248201527f455243313135353a207472616e7366657220746f206e6f6e2d4552433131353560448201527f526563656976657220696d706c656d656e7465720000000000000000000000006064820152608401610505565b6001600160e01b0319811663f23a6e6160e01b1461174f5760405162461bcd60e51b815260040161050590612c4b565b6001600160a01b0384163b1561192d5760405163bc197c8160e01b81526001600160a01b0385169063bc197c81906121459089908990889088908890600401612c93565b602060405180830381600087803b15801561215f57600080fd5b505af192505050801561218f575060408051601f3d908101601f1916820190925261218c91810190612b88565b60015b61219b57612027612ba5565b6001600160e01b0319811663bc197c8160e01b1461174f5760405162461bcd60e51b815260040161050590612c4b565b60035460ff166109ca5760405162461bcd60e51b815260206004820152601460248201527f5061757361626c653a206e6f74207061757365640000000000000000000000006044820152606401610505565b82805461222990612894565b90600052602060002090601f01602090048101928261224b5760008555612291565b82601f1061226457805160ff1916838001178555612291565b82800160010185558215612291579182015b82811115612291578251825591602001919060010190612276565b5061229d9291506122a1565b5090565b5b8082111561229d57600081556001016122a2565b80356001600160a01b03811681146122cd57600080fd5b919050565b600080604083850312156122e557600080fd5b6122ee836122b6565b946020939093013593505050565b6001600160e01b03198116811461059757600080fd5b60006020828403121561232457600080fd5b813561232f816122fc565b9392505050565b634e487b7160e01b600052604160045260246000fd5b601f8201601f1916810167ffffffffffffffff8111828210171561237257612372612336565b6040525050565b600067ffffffffffffffff83111561239357612393612336565b6040516123aa601f8501601f19166020018261234c565b8091508381528484840111156123bf57600080fd5b83836020830137600060208583010152509392505050565b6000602082840312156123e957600080fd5b813567ffffffffffffffff81111561240057600080fd5b8201601f8101841361241157600080fd5b61242084823560208401612379565b949350505050565b6000815180845260005b8181101561244e57602081850181015186830182015201612432565b81811115612460576000602083870101525b50601f01601f19169290920160200192915050565b60208152600061232f6020830184612428565b634e487b7160e01b600052602160045260246000fd5b60208101600383106124c057634e487b7160e01b600052602160045260246000fd5b91905290565b6000602082840312156124d857600080fd5b5035919050565b600080604083850312156124f257600080fd5b50508035926020909101359150565b600067ffffffffffffffff82111561251b5761251b612336565b5060051b60200190565b600082601f83011261253657600080fd5b8135602061254382612501565b604051612550828261234c565b83815260059390931b850182019282810191508684111561257057600080fd5b8286015b8481101561258b5780358352918301918301612574565b509695505050505050565b600082601f8301126125a757600080fd5b61232f83833560208501612379565b600080600080600060a086880312156125ce57600080fd5b6125d7866122b6565b94506125e5602087016122b6565b9350604086013567ffffffffffffffff8082111561260257600080fd5b61260e89838a01612525565b9450606088013591508082111561262457600080fd5b61263089838a01612525565b9350608088013591508082111561264657600080fd5b5061265388828901612596565b9150509295509295909350565b60006020828403121561267257600080fd5b61232f826122b6565b6000806040838503121561268e57600080fd5b823567ffffffffffffffff808211156126a657600080fd5b818501915085601f8301126126ba57600080fd5b813560206126c782612501565b6040516126d4828261234c565b83815260059390931b85018201928281019150898411156126f457600080fd5b948201945b838610156127195761270a866122b6565b825294820194908201906126f9565b9650508601359250508082111561272f57600080fd5b5061273c85828601612525565b9150509250929050565b600081518084526020808501945080840160005b838110156127765781518752958201959082019060010161275a565b509495945050505050565b60208152600061232f6020830184612746565b600080604083850312156127a757600080fd5b6127b0836122b6565b9150602083013580151581146127c557600080fd5b809150509250929050565b6000806000606084860312156127e557600080fd5b505081359360208301359350604090920135919050565b6000806040838503121561280f57600080fd5b612818836122b6565b9150612826602084016122b6565b90509250929050565b600080600080600060a0868803121561284757600080fd5b612850866122b6565b945061285e602087016122b6565b93506040860135925060608601359150608086013567ffffffffffffffff81111561288857600080fd5b61265388828901612596565b600181811c908216806128a857607f821691505b602082108114156128c957634e487b7160e01b600052602260045260246000fd5b50919050565b634e487b7160e01b600052601160045260246000fd5b6000828210156128f7576128f76128cf565b500390565b634e487b7160e01b600052603260045260246000fd5b60008219821115612925576129256128cf565b500190565b6020808252602e908201527f455243313135353a2063616c6c6572206973206e6f7420746f6b656e206f776e60408201526d195c881bdc88185c1c1c9bdd995960921b606082015260800190565b600060001982141561298c5761298c6128cf565b5060010190565b60208082526028908201527f496e73756666696369656e742062616c616e636520666f72207472616e73666560408201526772203a2066726f6d60c01b606082015260800190565b6060815260006129ee6060830186612428565b60208301949094525060400152919050565b60208082526025908201527f455243313135353a207472616e7366657220746f20746865207a65726f206164604082015264647265737360d81b606082015260800190565b6020808252602a908201527f455243313135353a20696e73756666696369656e742062616c616e636520666f60408201526939103a3930b739b332b960b11b606082015260800190565b604081526000612aa26040830185612746565b8281036020840152612ab48185612746565b95945050505050565b604081526000612ad06040830185612428565b90506001600160a01b03831660208301529392505050565b606081526000612afb6060830186612428565b6001600160a01b039490941660208301525060400152919050565b608081526000612b296080830187612428565b6020830195909552506040810192909252606090910152919050565b60006001600160a01b03808816835280871660208401525084604083015283606083015260a06080830152612b7d60a0830184612428565b979650505050505050565b600060208284031215612b9a57600080fd5b815161232f816122fc565b600060033d1115612bbe5760046000803e5060005160e01c5b90565b600060443d1015612bcf5790565b6040516003193d81016004833e81513d67ffffffffffffffff8160248401118184111715612bff57505050505090565b8285019150815181811115612c175750505050505090565b843d8701016020828501011115612c315750505050505090565b612c406020828601018761234c565b509095945050505050565b60208082526028908201527f455243313135353a204552433131353552656365697665722072656a656374656040820152676420746f6b656e7360c01b606082015260800190565b60006001600160a01b03808816835280871660208401525060a06040830152612cbf60a0830186612746565b8281036060840152612cd18186612746565b90508281036080840152612ce58185612428565b9897505050505050505056fe65786368616e676543616e63656c5374617274206d73672e73656e64657220257365786368616e67655374617274205f5479706546726f6d202573205f54797065546f202573205f616d6f756e74202573a264697066735822122034dde136e032b9ed649bcab9542e9ad6ac60bd8b56f7cb71f85a79f1ee671fb864736f6c63430008090033697066733a2f2f62616679626569667462337463727634647032766266727a696e6a7867376f76786d687361643573366f3770677a3268636b357935646e776e706d2f7b69647d2e6a736f6e",
  "linkReferences": {},
  "deployedLinkReferences": {}
}