{
  "_format": "hh-sol-artifact-1",
  "contractName": "JO2024",
  "sourceName": "contracts/JO2024.sol",
  "abi": [
    {
      "inputs": [],
      "stateMutability": "nonpayable",
      "type": "constructor"
    },
    {
      "anonymous": false,
      "inputs": [
        {
          "indexed": true,
          "internalType": "address",
          "name": "account",
          "type": "address"
        },
        {
          "indexed": true,
          "internalType": "address",
          "name": "operator",
          "type": "address"
        },
        {
          "indexed": false,
          "internalType": "bool",
          "name": "approved",
          "type": "bool"
        }
      ],
      "name": "ApprovalForAll",
      "type": "event"
    },
    {
      "anonymous": false,
      "inputs": [
        {
          "indexed": true,
          "internalType": "address",
          "name": "from",
          "type": "address"
        },
        {
          "indexed": true,
          "internalType": "address",
          "name": "to",
          "type": "address"
        },
        {
          "indexed": false,
          "internalType": "uint256",
          "name": "typeFom",
          "type": "uint256"
        },
        {
          "indexed": false,
          "internalType": "uint256",
          "name": "typeTo",
          "type": "uint256"
        },
        {
          "indexed": false,
          "internalType": "uint256",
          "name": "amount",
          "type": "uint256"
        }
      ],
      "name": "ExchangeEvent",
      "type": "event"
    },
    {
      "anonymous": false,
      "inputs": [
        {
          "indexed": true,
          "internalType": "address",
          "name": "previousOwner",
          "type": "address"
        },
        {
          "indexed": true,
          "internalType": "address",
          "name": "newOwner",
          "type": "address"
        }
      ],
      "name": "OwnershipTransferred",
      "type": "event"
    },
    {
      "anonymous": false,
      "inputs": [
        {
          "indexed": false,
          "internalType": "address",
          "name": "account",
          "type": "address"
        }
      ],
      "name": "Paused",
      "type": "event"
    },
    {
      "anonymous": false,
      "inputs": [
        {
          "indexed": true,
          "internalType": "address",
          "name": "operator",
          "type": "address"
        },
        {
          "indexed": true,
          "internalType": "address",
          "name": "from",
          "type": "address"
        },
        {
          "indexed": true,
          "internalType": "address",
          "name": "to",
          "type": "address"
        },
        {
          "indexed": false,
          "internalType": "uint256[]",
          "name": "ids",
          "type": "uint256[]"
        },
        {
          "indexed": false,
          "internalType": "uint256[]",
          "name": "values",
          "type": "uint256[]"
        }
      ],
      "name": "TransferBatch",
      "type": "event"
    },
    {
      "anonymous": false,
      "inputs": [
        {
          "indexed": true,
          "internalType": "address",
          "name": "operator",
          "type": "address"
        },
        {
          "indexed": true,
          "internalType": "address",
          "name": "from",
          "type": "address"
        },
        {
          "indexed": true,
          "internalType": "address",
          "name": "to",
          "type": "address"
        },
        {
          "indexed": false,
          "internalType": "uint256",
          "name": "id",
          "type": "uint256"
        },
        {
          "indexed": false,
          "internalType": "uint256",
          "name": "value",
          "type": "uint256"
        }
      ],
      "name": "TransferSingle",
      "type": "event"
    },
    {
      "anonymous": false,
      "inputs": [
        {
          "indexed": false,
          "internalType": "string",
          "name": "value",
          "type": "string"
        },
        {
          "indexed": true,
          "internalType": "uint256",
          "name": "id",
          "type": "uint256"
        }
      ],
      "name": "URI",
      "type": "event"
    },
    {
      "anonymous": false,
      "inputs": [
        {
          "indexed": false,
          "internalType": "address",
          "name": "account",
          "type": "address"
        }
      ],
      "name": "Unpaused",
      "type": "event"
    },
    {
      "inputs": [],
      "name": "amountBurn",
      "outputs": [
        {
          "internalType": "uint256",
          "name": "",
          "type": "uint256"
        }
      ],
      "stateMutability": "view",
      "type": "function"
    },
    {
      "inputs": [
        {
          "internalType": "address",
          "name": "account",
          "type": "address"
        },
        {
          "internalType": "uint256",
          "name": "id",
          "type": "uint256"
        }
      ],
      "name": "balanceOf",
      "outputs": [
        {
          "internalType": "uint256",
          "name": "",
          "type": "uint256"
        }
      ],
      "stateMutability": "view",
      "type": "function"
    },
    {
      "inputs": [
        {
          "internalType": "address[]",
          "name": "accounts",
          "type": "address[]"
        },
        {
          "internalType": "uint256[]",
          "name": "ids",
          "type": "uint256[]"
        }
      ],
      "name": "balanceOfBatch",
      "outputs": [
        {
          "internalType": "uint256[]",
          "name": "",
          "type": "uint256[]"
        }
      ],
      "stateMutability": "view",
      "type": "function"
    },
    {
      "inputs": [
        {
          "internalType": "uint256",
          "name": "_Type",
          "type": "uint256"
        }
      ],
      "name": "burn",
      "outputs": [],
      "stateMutability": "nonpayable",
      "type": "function"
    },
    {
      "inputs": [
        {
          "internalType": "address",
          "name": "_from",
          "type": "address"
        }
      ],
      "name": "exchangeByContract",
      "outputs": [],
      "stateMutability": "nonpayable",
      "type": "function"
    },
    {
      "inputs": [],
      "name": "exchangeCancelStart",
      "outputs": [],
      "stateMutability": "nonpayable",
      "type": "function"
    },
    {
      "inputs": [],
      "name": "exchangeClose",
      "outputs": [],
      "stateMutability": "nonpayable",
      "type": "function"
    },
    {
      "inputs": [
        {
          "internalType": "address",
          "name": "_from",
          "type": "address"
        }
      ],
      "name": "exchangeFound",
      "outputs": [],
      "stateMutability": "nonpayable",
      "type": "function"
    },
    {
      "inputs": [
        {
          "internalType": "uint256",
          "name": "_TypeFrom",
          "type": "uint256"
        },
        {
          "internalType": "uint256",
          "name": "_TypeTo",
          "type": "uint256"
        },
        {
          "internalType": "uint256",
          "name": "_amount",
          "type": "uint256"
        }
      ],
      "name": "exchangeStart",
      "outputs": [],
      "stateMutability": "nonpayable",
      "type": "function"
    },
    {
      "inputs": [],
      "name": "exchangeState",
      "outputs": [
        {
          "internalType": "uint8",
          "name": "",
          "type": "uint8"
        }
      ],
      "stateMutability": "view",
      "type": "function"
    },
    {
      "inputs": [],
      "name": "getExchangeStart",
      "outputs": [
        {
          "internalType": "address",
          "name": "",
          "type": "address"
        }
      ],
      "stateMutability": "view",
      "type": "function"
    },
    {
      "inputs": [
        {
          "internalType": "address",
          "name": "account",
          "type": "address"
        },
        {
          "internalType": "address",
          "name": "operator",
          "type": "address"
        }
      ],
      "name": "isApprovedForAll",
      "outputs": [
        {
          "internalType": "bool",
          "name": "",
          "type": "bool"
        }
      ],
      "stateMutability": "view",
      "type": "function"
    },
    {
      "inputs": [
        {
          "internalType": "uint256",
          "name": "_Type",
          "type": "uint256"
        },
        {
          "internalType": "uint256",
          "name": "_amount",
          "type": "uint256"
        }
      ],
      "name": "mint",
      "outputs": [],
      "stateMutability": "nonpayable",
      "type": "function"
    },
    {
      "inputs": [
        {
          "internalType": "uint256",
          "name": "",
          "type": "uint256"
        }
      ],
      "name": "minted",
      "outputs": [
        {
          "internalType": "uint256",
          "name": "",
          "type": "uint256"
        }
      ],
      "stateMutability": "view",
      "type": "function"
    },
    {
      "inputs": [],
      "name": "name",
      "outputs": [
        {
          "internalType": "string",
          "name": "",
          "type": "string"
        }
      ],
      "stateMutability": "pure",
      "type": "function"
    },
    {
      "inputs": [],
      "name": "owner",
      "outputs": [
        {
          "internalType": "address",
          "name": "",
          "type": "address"
        }
      ],
      "stateMutability": "view",
      "type": "function"
    },
    {
      "inputs": [],
      "name": "pause",
      "outputs": [],
      "stateMutability": "nonpayable",
      "type": "function"
    },
    {
      "inputs": [],
      "name": "paused",
      "outputs": [
        {
          "internalType": "bool",
          "name": "",
          "type": "bool"
        }
      ],
      "stateMutability": "view",
      "type": "function"
    },
    {
      "inputs": [],
      "name": "renounceOwnership",
      "outputs": [],
      "stateMutability": "nonpayable",
      "type": "function"
    },
    {
      "inputs": [
        {
          "internalType": "address",
          "name": "from",
          "type": "address"
        },
        {
          "internalType": "address",
          "name": "to",
          "type": "address"
        },
        {
          "internalType": "uint256[]",
          "name": "ids",
          "type": "uint256[]"
        },
        {
          "internalType": "uint256[]",
          "name": "amounts",
          "type": "uint256[]"
        },
        {
          "internalType": "bytes",
          "name": "data",
          "type": "bytes"
        }
      ],
      "name": "safeBatchTransferFrom",
      "outputs": [],
      "stateMutability": "nonpayable",
      "type": "function"
    },
    {
      "inputs": [
        {
          "internalType": "address",
          "name": "from",
          "type": "address"
        },
        {
          "internalType": "address",
          "name": "to",
          "type": "address"
        },
        {
          "internalType": "uint256",
          "name": "id",
          "type": "uint256"
        },
        {
          "internalType": "uint256",
          "name": "amount",
          "type": "uint256"
        },
        {
          "internalType": "bytes",
          "name": "data",
          "type": "bytes"
        }
      ],
      "name": "safeTransferFrom",
      "outputs": [],
      "stateMutability": "nonpayable",
      "type": "function"
    },
    {
      "inputs": [
        {
          "internalType": "uint256",
          "name": "_amount",
          "type": "uint256"
        }
      ],
      "name": "setAmountBurn",
      "outputs": [],
      "stateMutability": "nonpayable",
      "type": "function"
    },
    {
      "inputs": [
        {
          "internalType": "address",
          "name": "operator",
          "type": "address"
        },
        {
          "internalType": "bool",
          "name": "approved",
          "type": "bool"
        }
      ],
      "name": "setApprovalForAll",
      "outputs": [],
      "stateMutability": "nonpayable",
      "type": "function"
    },
    {
      "inputs": [
        {
          "internalType": "uint256",
          "name": "_Type",
          "type": "uint256"
        },
        {
          "internalType": "uint256",
          "name": "_amount",
          "type": "uint256"
        }
      ],
      "name": "setSupply",
      "outputs": [],
      "stateMutability": "nonpayable",
      "type": "function"
    },
    {
      "inputs": [
        {
          "internalType": "string",
          "name": "_uri",
          "type": "string"
        }
      ],
      "name": "setURI",
      "outputs": [],
      "stateMutability": "nonpayable",
      "type": "function"
    },
    {
      "inputs": [
        {
          "internalType": "uint256",
          "name": "",
          "type": "uint256"
        }
      ],
      "name": "supplies",
      "outputs": [
        {
          "internalType": "uint256",
          "name": "",
          "type": "uint256"
        }
      ],
      "stateMutability": "view",
      "type": "function"
    },
    {
      "inputs": [
        {
          "internalType": "bytes4",
          "name": "interfaceId",
          "type": "bytes4"
        }
      ],
      "name": "supportsInterface",
      "outputs": [
        {
          "internalType": "bool",
          "name": "",
          "type": "bool"
        }
      ],
      "stateMutability": "view",
      "type": "function"
    },
    {
      "inputs": [],
      "name": "symbol",
      "outputs": [
        {
          "internalType": "string",
          "name": "",
          "type": "string"
        }
      ],
      "stateMutability": "pure",
      "type": "function"
    },
    {
      "inputs": [
        {
          "internalType": "address",
          "name": "newOwner",
          "type": "address"
        }
      ],
      "name": "transferOwnership",
      "outputs": [],
      "stateMutability": "nonpayable",
      "type": "function"
    },
    {
      "inputs": [],
      "name": "unpause",
      "outputs": [],
      "stateMutability": "nonpayable",
      "type": "function"
    },
    {
      "inputs": [
        {
          "internalType": "uint256",
          "name": "",
          "type": "uint256"
        }
      ],
      "name": "uri",
      "outputs": [
        {
          "internalType": "string",
          "name": "",
          "type": "string"
        }
      ],
      "stateMutability": "view",
      "type": "function"
    }
  ],
  "bytecode": "0x6103e86004556101c0604052612710608081815260a082905260c082905260e08290526101009190915260016101208190526101408190526101608190526101808190526101a0526200005790600590600a6200017c565b506040805161014081018252600080825260208201819052918101829052606081018290526080810182905260a0810182905260c0810182905260e081018290526101008101829052610120810191909152620000b990600690600a620001d2565b50348015620000c757600080fd5b506040518060800160405280604c815260200162003069604c9139620000ed8162000109565b506003805460ff19169055620001033362000122565b620002e6565b80516200011e90600290602084019062000215565b5050565b600380546001600160a01b03838116610100818102610100600160a81b031985161790945560405193909204169182907f8be0079c531659141344cd1fd0a4f28419497f9722a3daafe3b4186f6b6457e090600090a35050565b828054828255906000526020600020908101928215620001c0579160200282015b82811115620001c0578251829061ffff169055916020019190600101906200019d565b50620001ce92915062000292565b5090565b828054828255906000526020600020908101928215620001c0579160200282015b82811115620001c0578251829060ff16905591602001919060010190620001f3565b8280546200022390620002a9565b90600052602060002090601f016020900481019282620002475760008555620001c0565b82601f106200026257805160ff1916838001178555620001c0565b82800160010185558215620001c0579182015b82811115620001c057825182559160200191906001019062000275565b5b80821115620001ce576000815560010162000293565b600181811c90821680620002be57607f821691505b60208210811415620002e057634e487b7160e01b600052602260045260246000fd5b50919050565b612d7380620002f66000396000f3fe608060405234801561001057600080fd5b50600436106101e45760003560e01c80636f655e3e1161010f578063a7e07c29116100a2578063e985e9c511610071578063e985e9c514610419578063f242432a14610455578063f2fde38b14610468578063fc784d491461047b57600080fd5b8063a7e07c29146103da578063aae394f1146103ed578063c58a1891146103f5578063c7843be11461040657600080fd5b80638da5cb5b116100de5780638da5cb5b1461036c57806395d89b4114610396578063983c3d9a146103b4578063a22cb465146103c757600080fd5b80636f655e3e14610341578063715018a6146103495780637dc0bf3f146103515780638456cb591461036457600080fd5b80631b2ef1ca116101875780633f4ba83a116101565780633f4ba83a146102fb57806342966c68146103035780634e1273f4146103165780635c975abb1461033657600080fd5b80631b2ef1ca146102af57806326f1a1fd146102c25780632eb2c2d6146102d557806335018441146102e857600080fd5b806306fdde03116101c357806306fdde03146102475780630dd27120146102795780630e89341c146102935780631902d71b146102a657600080fd5b8062fdd58e146101e957806301ffc9a71461020f57806302fe530514610232575b600080fd5b6101fc6101f73660046122f5565b61048e565b6040519081526020015b60405180910390f35b61022261021d366004612335565b610524565b6040519015158152602001610206565b6102456102403660046123fa565b610576565b005b60408051808201909152600d81526c4a4f203230323420506172697360981b60208201525b6040516102069190612498565b61028161058a565b60405160ff9091168152602001610206565b61026c6102a13660046124ab565b6105bd565b6101fc60045481565b6102456102bd3660046124c4565b610651565b6101fc6102d03660046124ab565b61081a565b6102456102e336600461259b565b61083b565b6102456102f6366004612645565b610887565b6102456109dd565b6102456103113660046124ab565b6109ef565b610329610324366004612660565b610ba8565b6040516102069190612766565b60035460ff16610222565b610245610cd2565b610245610e0d565b6101fc61035f3660046124ab565b610e1f565b610245610e2f565b60035461010090046001600160a01b03165b6040516001600160a01b039091168152602001610206565b6040805180820190915260028152614a4f60f01b602082015261026c565b6102456103c23660046124ab565b610e3f565b6102456103d5366004612779565b610e4c565b6102456103e83660046127b5565b610e5b565b6102456110c2565b6008546001600160a01b031661037e565b610245610414366004612645565b6111f0565b6102226104273660046127e1565b6001600160a01b03918216600090815260016020908152604080832093909416825291909152205460ff1690565b610245610463366004612814565b611480565b610245610476366004612645565b6114c5565b6102456104893660046124c4565b61153b565b60006001600160a01b0383166104fe5760405162461bcd60e51b815260206004820152602a60248201527f455243313135353a2061646472657373207a65726f206973206e6f742061207660448201526930b634b21037bbb732b960b11b60648201526084015b60405180910390fd5b506000908152602081815260408083206001600160a01b03949094168352929052205490565b60006001600160e01b03198216636cdb3d1360e11b148061055557506001600160e01b031982166303a24d0760e21b145b8061057057506301ffc9a760e01b6001600160e01b03198316145b92915050565b61057e611567565b610587816115c7565b50565b33600090815260076020526040812060030154600160a01b900460ff1660028111156105b8576105b8612879565b905090565b6060600280546105cc9061288f565b80601f01602080910402602001604051908101604052809291908181526020018280546105f89061288f565b80156106455780601f1061061a57610100808354040283529160200191610645565b820191906000526020600020905b81548152906001019060200180831161062857829003601f168201915b50505050509050919050565b6106596115da565b6106996040518060400160405280601881526020017f6d696e74205f54797065202573205f616d6f756e7420257300000000000000008152508383611620565b6005546106a8906001906128e0565b8211156106ec5760405162461bcd60e51b815260206004820152601260248201527113919508191bd95cc81b9bdd08195e1a5cdd60721b60448201526064016104f5565b600582815481106106ff576106ff6128f7565b9060005260206000200154816006848154811061071e5761071e6128f7565b9060005260206000200154610733919061290d565b11156107815760405162461bcd60e51b815260206004820152601c60248201527f416c6c20746865204e46542068617665206265656e206d696e7465640000000060448201526064016104f5565b600081116107bd5760405162461bcd60e51b81526020600482015260096024820152684d696e74205a65726f60b81b60448201526064016104f5565b6107e43383836040518060400160405280600381526020016203078360ec1b815250611667565b80600683815481106107f8576107f86128f7565b906000526020600020016000828254610811919061290d565b90915550505050565b6005818154811061082a57600080fd5b600091825260209091200154905081565b6001600160a01b03851633148061085757506108578533610427565b6108735760405162461bcd60e51b81526004016104f590612925565b610880858585858561177b565b5050505050565b6108c66040518060400160405280601b81526020017f65786368616e67654279436f6e7472616374205f66726f6d202573000000000081525082611958565b3330146109215760405162461bcd60e51b8152602060048201526024808201527f4f6e6c7920636f6e7472616374206164647265737320636f756c642065786368604482015263616e676560e01b60648201526084016104f5565b6001600160a01b0381811660009081526007602090815260409182902060038082018054600160a11b60ff60a01b19821617909155825460029093015485518087019096529185526203078360ec1b93850193909352610985948694931692611480565b6001600160a01b03808216600090815260076020908152604091829020600380820154600183015460029093015485518087019096529185526203078360ec1b93850193909352610587949290921692859290611480565b6109e5611567565b6109ed61199d565b565b610a2f6040518060400160405280601b81526020017f6275726e206d73672e73656e646572202573205f54797065202573000000000081525033836119ef565b6004811115610a805760405162461bcd60e51b815260206004820152601a60248201527f4e465420646f6573206e6f7420657869737420746f206275726e00000000000060448201526064016104f5565b600454610a8d338361048e565b1015610adb5760405162461bcd60e51b815260206004820152601d60248201527f4e6f204e4654547970652073756666696369656e7420746f206275726e00000060448201526064016104f5565b6005610ae7828261290d565b81548110610af757610af76128f7565b90600052602060002001546006826005610b11919061290d565b81548110610b2157610b216128f7565b90600052602060002001546001610b38919061290d565b1115610b865760405162461bcd60e51b815260206004820152601f60248201527f54686520756e69717565204e46542068617665206265656e206d696e7465640060448201526064016104f5565b610b933382600454611a36565b610587610ba182600561290d565b6001610651565b60608151835114610c0d5760405162461bcd60e51b815260206004820152602960248201527f455243313135353a206163636f756e747320616e6420696473206c656e677468604482015268040dad2e6dac2e8c6d60bb1b60648201526084016104f5565b6000835167ffffffffffffffff811115610c2957610c29612359565b604051908082528060200260200182016040528015610c52578160200160208202803683370190505b50905060005b8451811015610cca57610c9d858281518110610c7657610c766128f7565b6020026020010151858381518110610c9057610c906128f7565b602002602001015161048e565b828281518110610caf57610caf6128f7565b6020908102919091010152610cc381612973565b9050610c58565b509392505050565b3380610d155760405162461bcd60e51b815260206004820152601260248201527141646472657373206e6f742076616c69646560701b60448201526064016104f5565b610d546040518060400160405280601b81526020017f65786368616e6765436c6f7365206d73672e73656e646572202573000000000081525033611958565b600233600090815260076020526040902060030154600160a01b900460ff166002811115610d8457610d84612879565b14610dd15760405162461bcd60e51b815260206004820152601560248201527f45786368616e6765206e6f7420746f20636c6f7365000000000000000000000060448201526064016104f5565b336000908152600760205260408120818155600181018290556002810182905560030180546001600160a81b0319169055610587903090610e4c565b610e15611567565b6109ed6000611bb2565b6006818154811061082a57600080fd5b610e37611567565b6109ed611c19565b610e47611567565b600455565b610e57338383611c56565b5050565b610e7f604051806060016040528060308152602001612d0e60309139848484611d37565b60048311158015610e91575060048211155b610edd5760405162461bcd60e51b815260206004820152601e60248201527f4e465420646f6573206e6f7420657869737420746f2065786368616e6765000060448201526064016104f5565b80610ee8338561048e565b1015610f065760405162461bcd60e51b81526004016104f59061298e565b81831415610f445760405162461bcd60e51b815260206004820152600b60248201526a4e46547320657175616c7360a81b60448201526064016104f5565b60008111610f805760405162461bcd60e51b81526020600482015260096024820152684d696e74205a65726f60b81b60448201526064016104f5565b600233600090815260076020526040902060030154600160a01b900460ff166002811115610fb057610fb0612879565b1415610ff25760405162461bcd60e51b815260206004820152601160248201527045786368616e676520746f20636c6f736560781b60448201526064016104f5565b6040805160a0810182528481526020810184905290810182905260006060820152608081016001905233600090815260076020908152604091829020835181559083015160018201559082015160028083019190915560608301516003830180546001600160a01b03929092166001600160a01b031983168117825560808601519391926001600160a81b0319161790600160a01b90849081111561109957611099612879565b021790555050600880546001600160a01b03191633179055506110bd306001610e4c565b505050565b33806111055760405162461bcd60e51b815260206004820152601260248201527141646472657373206e6f742076616c69646560701b60448201526064016104f5565b611127604051806060016040528060218152602001612ced6021913933611958565b600133600090815260076020526040902060030154600160a01b900460ff16600281111561115757611157612879565b146111a45760405162461bcd60e51b815260206004820152601560248201527f45786368616e6765206e6f7420746f205374617274000000000000000000000060448201526064016104f5565b336000908152600760205260408120818155600181018290556002810182905560030180546001600160a81b0319169055600880546001600160a01b0319169055610587903090610e4c565b806001600160a01b03811661123c5760405162461bcd60e51b815260206004820152601260248201527141646472657373206e6f742076616c69646560701b60448201526064016104f5565b61127b6040518060400160405280601681526020017f65786368616e6765466f756e64205f66726f6d2025730000000000000000000081525083611958565b6001600160a01b038216600090815260076020526040902060028101546001909101546112a990339061048e565b10156113065760405162461bcd60e51b815260206004820152602660248201527f496e73756666696369656e742062616c616e636520666f72207472616e73666560448201526572203a20746f60d01b60648201526084016104f5565b6001600160a01b03821660009081526007602052604090206002810154905461133090849061048e565b101561134e5760405162461bcd60e51b81526004016104f59061298e565b60016001600160a01b038316600090815260076020526040902060030154600160a01b900460ff16600281111561138757611387612879565b146113d45760405162461bcd60e51b815260206004820152601560248201527f45786368616e6765206e6f7420696e207374617274000000000000000000000060448201526064016104f5565b6001600160a01b038216600081815260076020908152604091829020600381018054336001600160a01b0319918216811790925560088054909116905581546001830154600290930154855191825293810192909252928101919091529091907f80ab7cd7b2cadbadf00357ebe1e68eb354ce2bf65dd5d25c5795272432fd1c829060600160405180910390a361146c306001610e4c565b61147582611d86565b610e57306000610e4c565b6001600160a01b03851633148061149c575061149c8533610427565b6114b85760405162461bcd60e51b81526004016104f590612925565b6108808585858585611e1a565b6114cd611567565b6001600160a01b0381166115325760405162461bcd60e51b815260206004820152602660248201527f4f776e61626c653a206e6577206f776e657220697320746865207a65726f206160448201526564647265737360d01b60648201526084016104f5565b61058781611bb2565b611543611567565b8060058381548110611557576115576128f7565b6000918252602090912001555050565b6003546001600160a01b036101009091041633146109ed5760405162461bcd60e51b815260206004820181905260248201527f4f776e61626c653a2063616c6c6572206973206e6f7420746865206f776e657260448201526064016104f5565b8051610e57906002906020840190612240565b60035460ff16156109ed5760405162461bcd60e51b815260206004820152601060248201526f14185d5cd8589b194e881c185d5cd95960821b60448201526064016104f5565b6110bd838383604051602401611638939291906129d6565b60408051601f198184030181529190526020810180516001600160e01b031663ca47c4eb60e01b179052611f44565b6001600160a01b0384166116c75760405162461bcd60e51b815260206004820152602160248201527f455243313135353a206d696e7420746f20746865207a65726f206164647265736044820152607360f81b60648201526084016104f5565b3360006116d385611f65565b905060006116e085611f65565b90506000868152602081815260408083206001600160a01b038b1684529091528120805487929061171290849061290d565b909155505060408051878152602081018790526001600160a01b03808a1692600092918716917fc3d58168c5ae7397731d063d5bbf3d657854427343f4c083240f7aacaa2d0f62910160405180910390a461177283600089898989611fb0565b50505050505050565b81518351146117dd5760405162461bcd60e51b815260206004820152602860248201527f455243313135353a2069647320616e6420616d6f756e7473206c656e677468206044820152670dad2e6dac2e8c6d60c31b60648201526084016104f5565b6001600160a01b0384166118035760405162461bcd60e51b81526004016104f5906129fb565b3360005b84518110156118ea576000858281518110611824576118246128f7565b602002602001015190506000858381518110611842576118426128f7565b602090810291909101810151600084815280835260408082206001600160a01b038e1683529093529190912054909150818110156118925760405162461bcd60e51b81526004016104f590612a40565b6000838152602081815260408083206001600160a01b038e8116855292528083208585039055908b168252812080548492906118cf90849061290d565b92505081905550505050806118e390612973565b9050611807565b50846001600160a01b0316866001600160a01b0316826001600160a01b03167f4a39dc06d4c0dbc64b70af90fd698a233a518aa5d07e595d983b8c0526c8f7fb878760405161193a929190612a8a565b60405180910390a4611950818787878787612124565b505050505050565b610e57828260405160240161196e929190612ab8565b60408051601f198184030181529190526020810180516001600160e01b031663319af33360e01b179052611f44565b6119a56121ee565b6003805460ff191690557f5db9ee0a495bf2e6ff9c91a7834c1ba4fdd244a5e8aa4e537bd38aeae4b073aa335b6040516001600160a01b03909116815260200160405180910390a1565b6110bd838383604051602401611a0793929190612ae3565b60408051601f198184030181529190526020810180516001600160e01b0316630d26b92560e01b179052611f44565b6001600160a01b038316611a985760405162461bcd60e51b815260206004820152602360248201527f455243313135353a206275726e2066726f6d20746865207a65726f206164647260448201526265737360e81b60648201526084016104f5565b336000611aa484611f65565b90506000611ab184611f65565b60408051602080820183526000918290528882528181528282206001600160a01b038b1683529052205490915084811015611b3a5760405162461bcd60e51b8152602060048201526024808201527f455243313135353a206275726e20616d6f756e7420657863656564732062616c604482015263616e636560e01b60648201526084016104f5565b6000868152602081815260408083206001600160a01b038b81168086529184528285208a8703905582518b81529384018a90529092908816917fc3d58168c5ae7397731d063d5bbf3d657854427343f4c083240f7aacaa2d0f62910160405180910390a4604080516020810190915260009052611772565b600380546001600160a01b0383811661010081810274ffffffffffffffffffffffffffffffffffffffff001985161790945560405193909204169182907f8be0079c531659141344cd1fd0a4f28419497f9722a3daafe3b4186f6b6457e090600090a35050565b611c216115da565b6003805460ff191660011790557f62e78cea01bee320cd4e420270b5ea74000d11b0c9f74754ebdbfc544b05a2586119d23390565b816001600160a01b0316836001600160a01b03161415611cca5760405162461bcd60e51b815260206004820152602960248201527f455243313135353a2073657474696e6720617070726f76616c20737461747573604482015268103337b91039b2b63360b91b60648201526084016104f5565b6001600160a01b03838116600081815260016020908152604080832094871680845294825291829020805460ff191686151590811790915591519182527f17307eab39ab6107e8899845ad3d59bd9653f200f220920489ca2b5937696c31910160405180910390a3505050565b611d8084848484604051602401611d519493929190612b11565b60408051601f198184030181529190526020810180516001600160e01b031663a7a8785360e01b179052611f44565b50505050565b611dc56040518060400160405280601f81526020017f65786368616e6765546f446f4279436f6e7472616374205f66726f6d2025730081525082611958565b604051633501844160e01b81526001600160a01b03821660048201523090633501844190602401600060405180830381600087803b158015611e0657600080fd5b505af1158015610880573d6000803e3d6000fd5b6001600160a01b038416611e405760405162461bcd60e51b81526004016104f5906129fb565b336000611e4c85611f65565b90506000611e5985611f65565b90506000868152602081815260408083206001600160a01b038c16845290915290205485811015611e9c5760405162461bcd60e51b81526004016104f590612a40565b6000878152602081815260408083206001600160a01b038d8116855292528083208985039055908a16825281208054889290611ed990849061290d565b909155505060408051888152602081018890526001600160a01b03808b16928c821692918816917fc3d58168c5ae7397731d063d5bbf3d657854427343f4c083240f7aacaa2d0f62910160405180910390a4611f39848a8a8a8a8a611fb0565b505050505050505050565b80516a636f6e736f6c652e6c6f67602083016000808483855afa5050505050565b60408051600180825281830190925260609160009190602080830190803683370190505090508281600081518110611f9f57611f9f6128f7565b602090810291909101015292915050565b6001600160a01b0384163b156119505760405163f23a6e6160e01b81526001600160a01b0385169063f23a6e6190611ff49089908990889088908890600401612b40565b602060405180830381600087803b15801561200e57600080fd5b505af192505050801561203e575060408051601f3d908101601f1916820190925261203b91810190612b83565b60015b6120f45761204a612ba0565b806308c379a01415612084575061205f612bbc565b8061206a5750612086565b8060405162461bcd60e51b81526004016104f59190612498565b505b60405162461bcd60e51b815260206004820152603460248201527f455243313135353a207472616e7366657220746f206e6f6e2d4552433131353560448201527f526563656976657220696d706c656d656e74657200000000000000000000000060648201526084016104f5565b6001600160e01b0319811663f23a6e6160e01b146117725760405162461bcd60e51b81526004016104f590612c46565b6001600160a01b0384163b156119505760405163bc197c8160e01b81526001600160a01b0385169063bc197c81906121689089908990889088908890600401612c8e565b602060405180830381600087803b15801561218257600080fd5b505af19250505080156121b2575060408051601f3d908101601f191682019092526121af91810190612b83565b60015b6121be5761204a612ba0565b6001600160e01b0319811663bc197c8160e01b146117725760405162461bcd60e51b81526004016104f590612c46565b60035460ff166109ed5760405162461bcd60e51b815260206004820152601460248201527f5061757361626c653a206e6f742070617573656400000000000000000000000060448201526064016104f5565b82805461224c9061288f565b90600052602060002090601f01602090048101928261226e57600085556122b4565b82601f1061228757805160ff19168380011785556122b4565b828001600101855582156122b4579182015b828111156122b4578251825591602001919060010190612299565b506122c09291506122c4565b5090565b5b808211156122c057600081556001016122c5565b80356001600160a01b03811681146122f057600080fd5b919050565b6000806040838503121561230857600080fd5b612311836122d9565b946020939093013593505050565b6001600160e01b03198116811461058757600080fd5b60006020828403121561234757600080fd5b81356123528161231f565b9392505050565b634e487b7160e01b600052604160045260246000fd5b601f8201601f1916810167ffffffffffffffff8111828210171561239557612395612359565b6040525050565b600067ffffffffffffffff8311156123b6576123b6612359565b6040516123cd601f8501601f19166020018261236f565b8091508381528484840111156123e257600080fd5b83836020830137600060208583010152509392505050565b60006020828403121561240c57600080fd5b813567ffffffffffffffff81111561242357600080fd5b8201601f8101841361243457600080fd5b6124438482356020840161239c565b949350505050565b6000815180845260005b8181101561247157602081850181015186830182015201612455565b81811115612483576000602083870101525b50601f01601f19169290920160200192915050565b602081526000612352602083018461244b565b6000602082840312156124bd57600080fd5b5035919050565b600080604083850312156124d757600080fd5b50508035926020909101359150565b600067ffffffffffffffff82111561250057612500612359565b5060051b60200190565b600082601f83011261251b57600080fd5b81356020612528826124e6565b604051612535828261236f565b83815260059390931b850182019282810191508684111561255557600080fd5b8286015b848110156125705780358352918301918301612559565b509695505050505050565b600082601f83011261258c57600080fd5b6123528383356020850161239c565b600080600080600060a086880312156125b357600080fd5b6125bc866122d9565b94506125ca602087016122d9565b9350604086013567ffffffffffffffff808211156125e757600080fd5b6125f389838a0161250a565b9450606088013591508082111561260957600080fd5b61261589838a0161250a565b9350608088013591508082111561262b57600080fd5b506126388882890161257b565b9150509295509295909350565b60006020828403121561265757600080fd5b612352826122d9565b6000806040838503121561267357600080fd5b823567ffffffffffffffff8082111561268b57600080fd5b818501915085601f83011261269f57600080fd5b813560206126ac826124e6565b6040516126b9828261236f565b83815260059390931b85018201928281019150898411156126d957600080fd5b948201945b838610156126fe576126ef866122d9565b825294820194908201906126de565b9650508601359250508082111561271457600080fd5b506127218582860161250a565b9150509250929050565b600081518084526020808501945080840160005b8381101561275b5781518752958201959082019060010161273f565b509495945050505050565b602081526000612352602083018461272b565b6000806040838503121561278c57600080fd5b612795836122d9565b9150602083013580151581146127aa57600080fd5b809150509250929050565b6000806000606084860312156127ca57600080fd5b505081359360208301359350604090920135919050565b600080604083850312156127f457600080fd5b6127fd836122d9565b915061280b602084016122d9565b90509250929050565b600080600080600060a0868803121561282c57600080fd5b612835866122d9565b9450612843602087016122d9565b93506040860135925060608601359150608086013567ffffffffffffffff81111561286d57600080fd5b6126388882890161257b565b634e487b7160e01b600052602160045260246000fd5b600181811c908216806128a357607f821691505b602082108114156128c457634e487b7160e01b600052602260045260246000fd5b50919050565b634e487b7160e01b600052601160045260246000fd5b6000828210156128f2576128f26128ca565b500390565b634e487b7160e01b600052603260045260246000fd5b60008219821115612920576129206128ca565b500190565b6020808252602e908201527f455243313135353a2063616c6c6572206973206e6f7420746f6b656e206f776e60408201526d195c881bdc88185c1c1c9bdd995960921b606082015260800190565b6000600019821415612987576129876128ca565b5060010190565b60208082526028908201527f496e73756666696369656e742062616c616e636520666f72207472616e73666560408201526772203a2066726f6d60c01b606082015260800190565b6060815260006129e9606083018661244b565b60208301949094525060400152919050565b60208082526025908201527f455243313135353a207472616e7366657220746f20746865207a65726f206164604082015264647265737360d81b606082015260800190565b6020808252602a908201527f455243313135353a20696e73756666696369656e742062616c616e636520666f60408201526939103a3930b739b332b960b11b606082015260800190565b604081526000612a9d604083018561272b565b8281036020840152612aaf818561272b565b95945050505050565b604081526000612acb604083018561244b565b90506001600160a01b03831660208301529392505050565b606081526000612af6606083018661244b565b6001600160a01b039490941660208301525060400152919050565b608081526000612b24608083018761244b565b6020830195909552506040810192909252606090910152919050565b60006001600160a01b03808816835280871660208401525084604083015283606083015260a06080830152612b7860a083018461244b565b979650505050505050565b600060208284031215612b9557600080fd5b81516123528161231f565b600060033d1115612bb95760046000803e5060005160e01c5b90565b600060443d1015612bca5790565b6040516003193d81016004833e81513d67ffffffffffffffff8160248401118184111715612bfa57505050505090565b8285019150815181811115612c125750505050505090565b843d8701016020828501011115612c2c5750505050505090565b612c3b6020828601018761236f565b509095945050505050565b60208082526028908201527f455243313135353a204552433131353552656365697665722072656a656374656040820152676420746f6b656e7360c01b606082015260800190565b60006001600160a01b03808816835280871660208401525060a06040830152612cba60a083018661272b565b8281036060840152612ccc818661272b565b90508281036080840152612ce0818561244b565b9897505050505050505056fe65786368616e676543616e63656c5374617274206d73672e73656e64657220257365786368616e67655374617274205f5479706546726f6d202573205f54797065546f202573205f616d6f756e74202573a26469706673582212200a8c9b01c68a237c5bdbba533fdf33a8b9b96863895eacc330cfc0716fadd00f64736f6c63430008090033697066733a2f2f62616679626569667462337463727634647032766266727a696e6a7867376f76786d687361643573366f3770677a3268636b357935646e776e706d2f7b69647d2e6a736f6e",
  "linkReferences": {},
  "deployedLinkReferences": {}
}